:1000000012C02CC02BC070C123C128C027C026C07D
:1000100025C024C023C022C021C020C093C11EC05F
:100020001DC01CC01BC011241FBECFE5D4E0DEBF25
:10003000CDBF11E0A0E6B0E0ECE6F4E102C005902F
:100040000D92AC30B107D9F721E0ACE0B1E001C0CE
:100050001D92A334B207E1F748D506CAD1CFCF939A
:10006000DF93B7D084E690E0D8D28CE790E0D5D289
:1000700007D587E890E0D1D281E087D2C0E0DEEFFB
:1000800037D42197E9F780E080D283E990E0C5D2A8
:10009000C0E0DEEFFAD32197E9F79BD080E075D27C
:1000A00081EA90E0BAD281E082D2C0EFDFEF3FD4A4
:1000B0002197E9F780E069D280E079D282EB90E085
:1000C000ACD261E081E07CD2D8D460E080E078D22C
:1000D0008FEB90E0A2D2DF91CF91B6C384B125B16E
:1000E00090E0922B2091100130911101F901EE0F57
:1000F000FF1FDF01A45EBE4F11969C938E9340912B
:100100002C0150912D01452BD1F122303105BCF548
:10011000892F9927DF01A45FBE4F6D917C911197C4
:10012000AC01461B570B5595479555954795460F7E
:10013000571F4D935C93E05AFF4F60817181841B80
:10014000950B869FA001879F500D969F500D1124FF
:100150004330510564F1D90181E0A827AA0FBB1FE4
:10016000A25DBE4F8D919C911197019611969C9323
:100170008E937195619571097183608318C02430E5
:100180003105A9F44091280150912901452B49F4EA
:1001900051E040E080389C4F08F050E0852F942FCC
:1001A00002C081E090E09093290180932801F90139
:1001B000E353FF4F808187B9809110019091110125
:1001C000019666E070E0AFD8909311018093100122
:1001D000089589E785BD89B7806489BF81E983BDBA
:1001E00010BC8FEC89B988E18AB986E880BD8FE3BD
:1001F00087BB8CEF81BB81EA8FBD82E08EBD80E042
:10020000D6D161E081E0DCD160E080E0D9D181E04D
:10021000BCD1939A60E280E2EDD160E080E0E3D16E
:1002200010922D0110922C01109234011092330182
:100230008EE690E090932B0180932A0184B38C7F0B
:1002400084BB979A81E687B98FEE86B97894089532
:100250001F920F920FB60F9211242F933F934F933B
:100260005F936F937F938F939F93AF93BF93EF931E
:10027000FF9384B58B5D84BD809132018F5F809345
:10028000320180913201811113C08091350190912A
:100290003601A0913701B09138010196A11DB11D21
:1002A0008093350190933601A0933701B0933801C4
:1002B0008091330190913401892B29F0E091330131
:1002C000F09134010995FF91EF91BF91AF919F910A
:1002D0008F917F916F915F914F913F912F910F90EF
:1002E0000FBE0F901F9018951F920F920FB60F928E
:1002F00011248F939F93AF93BF93809132018F5FAF
:100300008093320180913201811113C080913501B7
:1003100090913601A0913701B09138010196A11D4D
:10032000B11D8093350190933601A0933701B093AE
:100330003801BF91AF919F918F910F900FBE0F9099
:100340001F9018951F920F920FB60F9211242F93A2
:100350003F934F935F936F937F938F939F93AF934D
:10036000BF93EF93FF93E0912A01F0912B01099540
:10037000FF91EF91BF91AF919F918F917F916F917D
:100380005F914F913F912F910F900FBE0F901F9053
:100390001895CF93DF93EC0160E070E083E090E08C
:1003A00024D09983888360E070E082E090E01DD0E3
:1003B0009B838A83DF91CF910895CF93DF93EC01E4
:1003C00084B38C7F84BB979A60E070E081E090E01A
:1003D0000CD09983888360E070E080E090E005D0E5
:1003E0009B838A83DF91CF910895CF93DF93EC01B4
:1003F0006115710511F0862FCBD1F894CC0FDD1F5C
:10040000C45EDE4F88819981789426E09695879521
:100410002A95E1F7DF91CF9108958F929F92AF9245
:10042000BF92CF92DF92EF92FF920F931F93CF93E1
:10043000DF93EC018B017A0160E080E0D4D020975B
:10044000B9F0DE01D7FF04C0AA27BB27AC1BBD0B48
:1004500020E137E2C6D723EA3BE440E050E077D71B
:1004600049015A01D7FF02C060E116C060E217C01F
:10047000D80117FF04C0AA27BB27A01BB10B21EB93
:1004800030E0AFD728E631E040E050E060D74901E6
:100490005A0117FF03C060E280E102C060E180E220
:1004A000A9D060E070E080E090E068D06E2D8E2DE5
:1004B0009AD08701E701C12CD12CC6010D2C000C6C
:1004C000AA0BBB0B88159905AA05BB05B0F5809151
:1004D0002E0190912F01C80ED91E80912E0190916E
:1004E0002F012091300130913101821B930B18169E
:1004F00019065CF4EC16FD061CF0053F110514F01E
:100500002A970FC0065F1F4F0CC0892B51F0E016D1
:10051000F1061CF0C53FD1051CF00A50110901C0BD
:100520002A9660E070E080E090E028D0602F8C2F69
:100530005AD081E090E034D1C0CF60E080E05AD062
:1005400088EC90E0DF91CF911F910F91FF90EF9099
:10055000DF90CF90BF90AF909F908F9021C1F89483
:1005600081E090E090932D0180932C01EEE2F1E088
:10057000118210821382128278940895EEE2F1E0E3
:1005800091838083738362830895811102C0C09830
:1005900003C0813019F4C09A92980895833011F401
:1005A000C09A03C0823011F4C098929A089522B381
:1005B0002F7B30E4839FC0011124822B82BB0895DE
:1005C000811104C0611102C0A99809C0979894B321
:1005D000936094BB95B3936095BB8823A9F3611195
:1005E00001C0A898089590E09BBD8ABD70E079BDD8
:1005F00068BD089592B39F7C892B82BB88B38F7CA2
:10060000682B68BB089598E09AB95E9A5D9BFECF0F
:100610008CB95E9BFECF1AB808950F931F93CF93AA
:100620008C01C0E0F801EC0FF11D8081882319F0E6
:10063000CF5FE9DFF7CFCF911F910F9108958091A0
:100640001201882309F45AC080913201877009F0A1
:1006500055C080B380958170909118019F3F19F02B
:100660009F5F90931801209119019091180128170C
:10067000A1F1943018F4109215013EC0409115017B
:10068000411115C0882361F09B3F50F021E030E01C
:10069000309317012093160191E09093150104C047
:1006A00010921701109216011092180125C0963071
:1006B00018F19B3078F42091160130911701220F28
:1006C000331F282B30931701209316014F5F40935F
:1006D0001501EACF10921501E7CF9B3068F0909199
:1006E00015019E3041F6209116013091170130938B
:1006F000140120931301BFCF8093190108958091B5
:100700001301909114011092140110921301089595
:1007100081B381BB82B382BB81E0809312018FE100
:1007200093E09093340180933301089580912801E0
:1007300090912901892B11F480E008956FE070E019
:1007400084E090E052DE823F23E09207A8F79C010C
:1007500040E050E060E070E48CE990E01AD620516F
:10076000374241095109AEE3B0E041D668577C4EAB
:100770008F4F9F4F20E137E240E050E00AD6822FB2
:100780000895F89410922901109228017894089500
:1007900090913201890F909132018913FCCF089515
:1007A0000F931F93CF93DF938C01C0E0D0E0C0176D
:1007B000D10721F084E2ECDF2196F9CFDF91CF91D0
:1007C0001F910F91089528E02AB9662341F05D9B9F
:1007D000FCCFFC012191CF012CB96150F6CF5E9B7B
:1007E000FECF5E9A53980895CF9320E12AB9411520
:1007F000510519F4282FFC0122C0782FFC0120E0BC
:1008000030E0CE2FC71BC61768F4D9011196241704
:10081000350738F45F9B03C02CB12193F0CF9D01C5
:10082000F2CF9D014217530768F424E5FC012083B1
:1008300009C0861738F45F9BFCCF8CB181938E2F53
:10084000821BF7CFCF9108951F93CF93DF931F9211
:10085000CDB7DEB71EEF81E098DE4EEF5FEF61E0CF
:10086000CE010196C1DF82E090DE8981843511F0EE
:100870008F5F898361E0CE010196A5DF115059F7A2
:100880000F90DF91CF911F910895CF9360E080E2A8
:10089000B1DE4CDFC82F882329F180E076DE80E0CE
:1008A00086DE60E080E08CDE60E080E09CDEC0FF01
:1008B00003C060E088EC97DEC1FF05C061E080E026
:1008C0007FDE61E001C060E0C2FF02C081E078DE4F
:1008D000C3FF02C081E06BDEC4FD929AC5FF06C073
:1008E000C09A04C08AE090E0CF915ACFCF9108958A
:1008F000CF93DF9300D000D0CDB7DEB7CE01019605
:1009000048DD61E08B819C818139914008F460E091
:1009100081E029813A812139314008F480E050DEBC
:100920000F900F900F900F90DF91CF910895CF937C
:10093000DF9300D000D0CDB7DEB7CE0101963DDD0C
:1009400080E023DE89819A818115924010F481E054
:100950001CDE8B819C818115924010F482E015DEB3
:100960000F900F900F900F90DF91CF910895CF933C
:1009700060E280E03FDEC0E06C2F80E034DE8AE0A1
:1009800090E00EDFCF5FCF3FB9F76C2F80E02BDE1A
:100990008AE090E005DFC150C1F760E180E02ADE27
:1009A0006C2F80E020DE8AE090E0FADECF5FCF3F60
:1009B000B9F76C2F80E017DE8AE090E0F1DEC150DD
:1009C000C1F7CF910895CF9360E080E213DEC0E0DD
:1009D0008AE090E0E5DE60E08C2F05DECF5FCF3F60
:1009E000B9F760E08C2FFFDD8AE090E0D9DEC150DE
:1009F000C1F760E080E1FEDD60E08C2FF4DD8AE08D
:100A000090E0CEDECF5FCF3FB9F760E08C2FEBDD1B
:100A10008AE090E0C5DEC150C1F7CF910895CF9331
:100A200060E280E2E7DDC0E06C2F8C2FDCDD8AE045
:100A300090E0B6DECF5FCF3FB9F76C2F8C2FD3DDC0
:100A40008AE090E0ADDEC150C1F760E180E1D2DD27
:100A50006C2F8C2FC8DD8AE090E0A2DECF5FCF3F05
:100A6000B9F76C2F8C2FBFDD8AE090E099DEC15082
:100A7000C1F760E080E0CF91B6CDA5DF78DFCFCFC2
:100A800081E083DD60E080E09BDD80E090DD88EB4D
:100A90009BE086DE82E079DD88EB9BE081DE80E012
:100AA00074DD81E084DD88EB9BE07ADE60E081E04C
:100AB00087DD80E07CDD88EB9BE072DE61E080E03A
:100AC0007FDD88EB9BE06CDE61E081E079DD83E037
:100AD0005CDD81E06CDD88EB9BE062DE60E080E065
:100AE0006FDD80E052DD80E062CD73DB1FDE8823A6
:100AF00021F01CDE8111FDCF02D0B1DAF7CF69DB26
:100B000083ED90E08ADD12DE813011F42BD0FBCF33
:100B1000823011F4ECD3F7CF843011F404D3F3CF47
:100B2000883089F738D1EFCF80913B0190913C011B
:100B300001968F3F910514F08FEF90E090933C0168
:100B400080933B0108958091390190913A0101967B
:100B50008F3F910514F08FEF90E090933A018093CE
:100B600039010895CF93DF9334DB8EED90E055DDAE
:100B700081E01DDDCFEF8FE391E00BDCC150D9F7B1
:100B80008FE391E006DC80913F019091400120913C
:100B9000410130914201821B930B90933E0180935F
:100BA0003D018FE890E090933A0180933901909352
:100BB0003C0180933B01CFE8D0E08FE391E0E9DB9B
:100BC00080913F019091400120914101309142017B
:100BD000821B930B20913D0130913E01821B930BB0
:100BE0008530910524F081E0D0DC9EDF11C08C3F80
:100BF0009F4F24F482E0C9DCA6DF0AC080E0C5DC98
:100C0000D0933A01C0933901D0933C01C0933B018A
:100C10006091390180913B01E6DC88DD882369F22F
:100C2000DF91CF9108958091390190913A01059615
:100C300090933A018093390120913B0130913C011E
:100C40002B5F3F4FA901415C5F4F4F33510510F4BB
:100C500021E030E030933C0120933B01CF96CF97C9
:100C600030F481E090E090933A018093390181E083
:100C70009EDC60E080E0A4CC2091390130913A0103
:100C8000C901059790933A018093390180913B0106
:100C900090913C01059790933C0180933B01265035
:100CA00031092F33310530F42FEF3FEF30933A0104
:100CB000209339010197CF9730F48FEF9FEF9093F6
:100CC0003C0180933B0180E072DC61E081E078CC04
:100CD00080913B0190913C019C0125503109069780
:100CE000CF9728F030933C0120933B0106C08FEF53
:100CF0009FEF90933C0180933B018091390190914B
:100D00003A0105969C01215C3F4F2F33310510F4C9
:100D100081E090E090933A018093390180E047DCD4
:100D200060E081E04DCC80913B0190913C010596C3
:100D30009C01215C3F4F2F33310510F481E090E09E
:100D400090933C0180933B018091390190913A014D
:100D50009C01255031090697CF9728F030933A012E
:100D60002093390106C08FEF9FEF90933A01809353
:100D7000390180E01CDC61E080E022CC10923C0173
:100D800010923B0110923A011092390180E00FDC81
:100D900060E080E015CCEF92FF920F931F93CF930A
:100DA000DF93CDB7DEB727970FB6F894DEBF0FBE3F
:100DB000CDBF0FDAADDC89EE90E02FDC0FEF10E055
:100DC000EE24E394FF24FA949ADC009709F454C0CB
:100DD0008F73907190931B0180931A0140E1BE01C3
:100DE0006F5F7F4F0ED3CE01019617DC8BED90E045
:100DF00014DC80911A0190911B01803120E192074F
:100E0000B9F1B0F4863020E1920791F140F48230DC
:100E100020E1920749F18430904141F131C088309E
:100E200020E19207F9F08C30904109F4B5C028C058
:100E3000813220E19207B1F040F4813120E1920744
:100E4000A9F08032904181F01BC0893220E19207E5
:100E500089F08D3320E1920709F49EC085329041DC
:100E600079F408C009DF0CC0DEDE0AC031DF08C03B
:100E70005ADF06C083DF04C010921B0110921A01D2
:100E800080913B0190913C019C01215031092E330E
:100E9000310528F4CF9690933C0180933B018091DB
:100EA0003B0190913C019C01225C3F4F2E33310568
:100EB00028F4CF9790933C0180933B0180913901B6
:100EC00090913A019C01215031092E33310528F4CB
:100ED000CF9690933A018093390180913901909196
:100EE0003A019C01225C3F4F2E33310528F4CF9705
:100EF00090933A018093390140913B0150913C011C
:100F000057FF02C080E101C080E220913901309199
:100F10003A0137FF02C060E101C060E24F3F510576
:100F200029F024F010933C0100933B0140913B01D8
:100F300050913C0141305F4F24F4F0923C01E0922B
:100F40003B012F3F310529F024F010933A01009323
:100F500039012091390130913A0121303F4F24F479
:100F6000F0923A01E092390145DB609139017091CC
:100F70003A0177FF03C071956195710980913B013A
:100F800090913C0197FF03C09195819591092BDBCE
:100F900084E690E005DC18CF80E090E027960FB65D
:100FA000F894DEBF0FBECDBFDF91CF911F910F919F
:100FB000FF90EF9008958091390190913A01059644
:100FC00090933A018093390120913B0130913C018B
:100FD0002B5F3F4FA901415C5F4F4F33510510F428
:100FE00021E030E030933C0120933B01CF96CF9736
:100FF00030F481E090E090933A018093390181E0F0
:10100000D6DA60E080E0DCCA2091390130913A0103
:10101000C901059790933A018093390180913B0172
:1010200090913C01059790933C0180933B012650A1
:1010300031092F33310530F42FEF3FEF30933A0170
:10104000209339010197CF9730F48FEF9FEF909362
:101050003C0180933B0180E0AADA61E081E0B0CA04
:1010600080913B0190913C019C01255031090697EC
:10107000CF9728F030933C0120933B0106C08FEFBF
:101080009FEF90933C0180933B01809139019091B7
:101090003A0105969C01215C3F4F2F33310510F436
:1010A00081E090E090933A018093390180E07FDA0B
:1010B00060E081E085CA80913B0190913C010596FA
:1010C0009C01215C3F4F2F33310510F481E090E00B
:1010D00090933C0180933B018091390190913A01BA
:1010E0009C01255031090697CF9728F030933A019B
:1010F0002093390106C08FEF9FEF90933A018093C0
:10110000390180E054DA61E080E05ACA10923C0173
:1011100010923B0110923A011092390180E047DAB7
:1011200060E080E04DCAEF92FF920F931F93CF9340
:10113000DF931F92CDB7DEB74CD884EF90E06DDA25
:1011400020DB78940FEF10E0EE24E394FF24FA9470
:1011500019824EEF5FEF61E0CE01019645DB898198
:10116000843379F038F48B3109F4B9C0823371F4E7
:101170004BDF0CC0863339F040F0883339F41BDF85
:1011800005C06EDF03C097DF01C0C0DF80913B0167
:1011900090913C019C01215031092E33310528F4F6
:1011A000CF9690933C0180933B0180913B019091BD
:1011B0003C019C01225C3F4F2E33310528F4CF9730
:1011C00090933C0180933B018091390190913A01C9
:1011D0009C01215031092E33310528F4CF9690938C
:1011E0003A01809339018091390190913A019C0133
:1011F000225C3F4F2E33310528F4CF9790933A016C
:10120000809339018091280190912901892BD1F097
:1012100010923C0110923B0110923A011092390158
:10122000109229011092280160E180E1E3D968EC75
:1012300088ECD9D981E0BBD961E081E0C1D988EEE1
:1012400093E0AEDA40913B0150913C0157FF02C060
:1012500080E101C080E22091390130913A0137FFED
:1012600002C060E101C060E24F3F510529F024F067
:1012700010933C0100933B0140913B0150913C0194
:1012800041305F4F24F4F0923C01E0923B012F3F4C
:10129000310529F024F010933A010093390120918F
:1012A000390130913A0121303F4F24F4F0923A0154
:1012B000E09239019FD96091390170913A0177FF2D
:1012C00003C071956195710980913B0190913C013A
:1012D00097FF03C091958195910985D939CF0F90DA
:1012E000DF91CF911F910F91FF90EF900895CF93D1
:1012F000DF936FD734D98DEF90E08FD9C4E0D0E081
:1013000048EC50E060E070E088EC90E086D848EC73
:1013100050E06AE570E080E090E07FD8219781F7A7
:10132000DF91CF910895AA1BBB1B51E107C0AA1FF3
:10133000BB1FA617B70710F0A61BB70B881F991F76
:101340005A95A9F780959095BC01CD010895A1E229
:101350001A2EAA1BBB1BFD010DC0AA1FBB1FEE1F2F
:10136000FF1FA217B307E407F50720F0A21BB30B7A
:10137000E40BF50B661F771F881F991F1A9469F7F6
:1013800060957095809590959B01AC01BD01CF0152
:101390000895052E97FB16F400940FD057FD05D045
:1013A000D6DF07FC02D046F408C050954095309532
:1013B00021953F4F4F4F5F4F0895909580957095C1
:1013C00061957F4F8F4F9F4F0895A29FB001B39FAC
:1013D000C001A39F01D0B29F700D811D1124911DEA
:1013E0000895F3DFB7FF0895821B930B0895EDDF97
:1013F000A59F900DB49F900DA49F800D911D112469
:101400000895BB274A3031F4992322F4BDE2909528
:1014100081959F4F01C0BB27FB015527AA27880F45
:10142000991FAA1FA41710F0A41B83955051B9F758
:10143000A05DAA3308F0A95DA193009779F7B111D7
:10144000B1931192CB0100C0DC01FC01672F7191B7
:101450007723E1F7329704C07C916D93708362919A
:0C146000AE17BF07C8F30895F894FFCF43
:10146C00010001000A0D2D2D20415355524F2054DF
:10147C00657374696E67202D2D0A0D004C45442050
:10148C00546573740A0D004C696E65205465737451
:10149C000A0D0053776974636820546573740A0DE0
:1014AC00004F646F6D657472696520546573740ABE
:1014BC000D004D6F746F7220546573740A0D0053D8
:1014CC00657269616C20546573740A0D0062636403
:1014DC00E5606144656D6F4D6F64650D0A004C6984
:1014EC006E6544656D6F0D0A00524335205465736B
:1014FC00740D0A00504344656D6F0D0A005265630C
:0C150C00687465636B44656D6F0D0A0028
:00000001FF
