:1000000012C02CC02BC070C123C128C027C026C07D
:1000100025C024C023C022C021C020C093C11EC05F
:100020001DC01CC01BC011241FBECFE5D4E0DEBF25
:10003000CDBF11E0A0E6B0E0E2E2F4E102C005903D
:100040000D92AC3CB107D9F722E0ACECB1E001C0B5
:100050001D92A330B207E1F723D5E1C9D1CFCF93E9
:10006000DF93B7D084E690E0D8D28CE790E0D5D289
:10007000E2D487E890E0D1D281E087D2C0E0DEEF21
:1000800037D42197E9F780E080D283E990E0C5D2A8
:10009000CCEDD5E0FAD32197E9F79BD080E075D27B
:1000A00081EA90E0BAD281E082D2C0EFDFEF3FD4A4
:1000B0002197E9F780E069D280E079D282EB90E085
:1000C000ACD261E081E07CD2B1D460E080E078D253
:1000D0008FEB90E0A2D2DF91CF91B6C384B125B16E
:1000E00090E0922B2091D0013091D101F901EE0FD7
:1000F000FF1FDF01A452BE4F11969C938E93409137
:10010000EC015091ED01452BD1F122303105BCF5C8
:10011000892F9927DF01A453BE4F6D917C911197D0
:10012000AC01461B570B5595479555954795460F7E
:10013000571F4D935C93E05AFF4F60817181841B80
:10014000950B869FA001879F500D969F500D1124FF
:100150004330510564F1D90181E0A827AA0FBB1FE4
:10016000A251BE4F8D919C911197019611969C932F
:100170008E937195619571097183608318C02430E5
:100180003105A9F44091E8015091E901452B49F46A
:1001900051E040E080389C4F08F050E0852F942FCC
:1001A00002C081E090E09093E9018093E801F901B9
:1001B000E353FF4F808187B98091D0019091D101A5
:1001C000019666E070E08AD89093D1018093D001C7
:1001D000089589E785BD89B7806489BF81E983BDBA
:1001E00010BC8FEC89B988E18AB986E880BD8FE3BD
:1001F00087BB8CEF81BB81EA8FBD82E08EBD80E042
:10020000D6D161E081E0DCD160E080E0D9D181E04D
:10021000BCD1939A60E280E2EDD160E080E0E3D16E
:100220001092ED011092EC011092F4011092F30182
:100230008EE690E09093EB018093EA0184B38C7F8B
:1002400084BB979A81E687B98FEE86B97894089532
:100250001F920F920FB60F9211242F933F934F933B
:100260005F936F937F938F939F93AF93BF93EF931E
:10027000FF9384B58B5D84BD8091F2018F5F809385
:10028000F2018091F201811113C08091F5019091EA
:10029000F601A091F701B091F8010196A11DB11DE1
:1002A0008093F5019093F601A093F701B093F801C4
:1002B0008091F3019091F401892B29F0E091F301F1
:1002C000F091F4010995FF91EF91BF91AF919F914A
:1002D0008F917F916F915F914F913F912F910F90EF
:1002E0000FBE0F901F9018951F920F920FB60F928E
:1002F00011248F939F93AF93BF938091F2018F5FEF
:100300008093F2018091F201811113C08091F50177
:100310009091F601A091F701B091F8010196A11D0D
:10032000B11D8093F5019093F601A093F701B0936E
:10033000F801BF91AF919F918F910F900FBE0F90D9
:100340001F9018951F920F920FB60F9211242F93A2
:100350003F934F935F936F937F938F939F93AF934D
:10036000BF93EF93FF93E091EA01F091EB010995C0
:10037000FF91EF91BF91AF919F918F917F916F917D
:100380005F914F913F912F910F900FBE0F901F9053
:100390001895CF93DF93EC0160E070E083E090E08C
:1003A00024D09983888360E070E082E090E01DD0E3
:1003B0009B838A83DF91CF910895CF93DF93EC01E4
:1003C00084B38C7F84BB979A60E070E081E090E01A
:1003D0000CD09983888360E070E080E090E005D0E5
:1003E0009B838A83DF91CF910895CF93DF93EC01B4
:1003F0006115710511F0862FCBD1F894CC0FDD1F5C
:10040000C452DE4F88819981789426E0969587952D
:100410002A95E1F7DF91CF9108958F929F92AF9245
:10042000BF92CF92DF92EF92FF920F931F93CF93E1
:10043000DF93EC018B017A0160E080E0D4D020975B
:10044000B9F0DE01D7FF04C0AA27BB27AC1BBD0B48
:1004500020E137E2A1D723EA3BE440E050E052D765
:1004600049015A01D7FF02C060E116C060E217C01F
:10047000D80117FF04C0AA27BB27A01BB10B21EB93
:1004800030E08AD728E631E040E050E03BD7490130
:100490005A0117FF03C060E280E102C060E180E220
:1004A000A9D060E070E080E090E068D06E2D8E2DE5
:1004B0009AD08701E701C12CD12CC6010D2C000C6C
:1004C000AA0BBB0B88159905AA05BB05B0F5809151
:1004D000EE019091EF01C80ED91E8091EE0190912E
:1004E000EF012091F0013091F101821B930B18165E
:1004F00019065CF4EC16FD061CF0053F110514F01E
:100500002A970FC0065F1F4F0CC0892B51F0E016D1
:10051000F1061CF0C53FD1051CF00A50110901C0BD
:100520002A9660E070E080E090E028D0602F8C2F69
:100530005AD081E090E034D1C0CF60E080E05AD062
:1005400088EC90E0DF91CF911F910F91FF90EF9099
:10055000DF90CF90BF90AF909F908F9021C1F89483
:1005600081E090E09093ED018093EC01EEEEF1E0FC
:10057000118210821382128278940895EEEEF1E0D7
:1005800091838083738362830895811102C0C09830
:1005900003C0813019F4C09A92980895833011F401
:1005A000C09A03C0823011F4C098929A089522B381
:1005B0002F7B30E4839FC0011124822B82BB0895DE
:1005C000811104C0611102C0A99809C0979894B321
:1005D000936094BB95B3936095BB8823A9F3611195
:1005E00001C0A898089590E09BBD8ABD70E079BDD8
:1005F00068BD089592B39F7C892B82BB88B38F7CA2
:10060000682B68BB089598E09AB95E9A5D9BFECF0F
:100610008CB95E9BFECF1AB808950F931F93CF93AA
:100620008C01C0E0F801EC0FF11D8081882319F0E6
:10063000CF5FE9DFF7CFCF911F910F9108958091A0
:10064000D201882309F45AC08091F201877009F021
:1006500055C080B3809581709091D8019F3F19F06B
:100660009F5F9093D8012091D9019091D8012817CC
:10067000A1F1943018F41092D5013EC04091D501FB
:10068000411115C0882361F09B3F50F021E030E01C
:100690003093D7012093D60191E09093D50104C007
:1006A0001092D7011092D6011092D80125C0963031
:1006B00018F19B3078F42091D6013091D701220FA8
:1006C000331F282B3093D7012093D6014F5F4093DF
:1006D000D501EACF1092D501E7CF9B3068F0909119
:1006E000D5019E3041F62091D6013091D70130934B
:1006F000D4012093D301BFCF8093D9010895809175
:10070000D3019091D4011092D4011092D301089595
:1007100081B381BB82B382BB81E08093D2018FE140
:1007200093E09093F4018093F30108958091E801A0
:100730009091E901892B11F480E008956FE070E059
:1007400084E090E052DE823F23E09207A8F79C010C
:1007500040E050E060E070E48CE990E0F5D5205195
:10076000374241095109AEE3B0E01CD668577C4ED0
:100770008F4F9F4F20E137E240E050E0E5D5822FD8
:100780000895F8941092E9011092E8017894089580
:100790009091F201890F9091F2018913FCCF089595
:1007A0000F931F93CF93DF938C01C0E0D0E0C0176D
:1007B000D10721F084E2ECDF2196F9CFDF91CF91D0
:1007C0001F910F91089528E02AB9662341F05D9B9F
:1007D000FCCFFC012191CF012CB96150F6CF5E9B7B
:1007E000FECF5E9A53980895CF9320E12AB9411520
:1007F000510519F4282FFC0122C0782FFC0120E0BC
:1008000030E0CE2FC71BC61768F4D9011196241704
:10081000350738F45F9B03C02CB12193F0CF9D01C5
:10082000F2CF9D014217530768F424E5FC012083B1
:1008300009C0861738F45F9BFCCF8CB181938E2F53
:10084000821BF7CFCF9108951F93CF93DF931F9211
:10085000CDB7DEB71EEF81E098DE4EEF5FEF61E0CF
:10086000CE010196C1DF82E090DE8981843511F0EE
:100870008F5F898361E0CE010196A5DF115059F7A2
:100880000F90DF91CF911F910895CF9360E080E2A8
:10089000B1DE4CDFC82F882329F180E076DE80E0CE
:1008A00086DE60E080E08CDE60E080E09CDEC0FF01
:1008B00003C060E088EC97DEC1FF05C061E080E026
:1008C0007FDE61E001C060E0C2FF02C081E078DE4F
:1008D000C3FF02C081E06BDEC4FD929AC5FF06C073
:1008E000C09A04C08AE090E0CF915ACFCF9108958A
:1008F000CF93DF9300D000D0CDB7DEB7CE01019605
:1009000048DD61E08B819C818139914008F460E091
:1009100081E029813A812139314008F480E050DEBC
:100920000F900F900F900F90DF91CF910895CF937C
:10093000DF9300D000D0CDB7DEB7CE0101963DDD0C
:1009400080E023DE89819A818115924010F481E054
:100950001CDE8B819C818115924010F482E015DEB3
:100960000F900F900F900F90DF91CF9108959C0101
:10097000862F2115310521F02130310519F0089518
:1009800060E001C080E036CE9C01862F2115310544
:1009900021F02130310519F0089560E001C080E0B8
:1009A00022CE0F931F93CF93DF938C01E0DFC0E043
:1009B000D0E0BE01C801E8DF8AE090E0F1DE2196D8
:1009C000CF3FD105B1F7BE01C801DEDF8AE090E07C
:1009D000E7DE2197C1F7DF91CF911F910F91089525
:1009E00083ED90E01ADE60E270E081E090E0D9DF14
:1009F0008FEE90E012DE60E170E081E090E0D1DF08
:100A00008DE091E00ACE8AE291E007DE60E270E0DC
:100A100080E090E0C6DF85E491E0FFDD60E170E01A
:100A200080E090E0BEDF82E691E0F7CDECDFD8DF3A
:100A30008EE791E0F2CD81E0A8DD60E080E0C0DDEE
:100A400080E0B5DD88EB9BE0ABDE82E09EDD88EBED
:100A50009BE0A6DE80E099DD81E0A9DD88EB9BE0EC
:100A60009FDE60E081E0ACDD80E0A1DD88EB9BE013
:100A700097DE61E080E0A4DD88EB9BE091DE61E041
:100A800081E09EDD83E081DD81E091DD88EB9BE00C
:100A900087DE60E080E094DD80E077DD80E087CD78
:100AA00098DB44DE882321F041DE8111FDCF02D0A6
:100AB000D6DAF7CF8EDB83E991E0AFDD37DE813028
:100AC00011F42BD0FBCF823011F4ECD3F7CF84306C
:100AD00011F404D3F3CF883089F738D1EFCF809168
:100AE000FB019091FC0101968F3F910514F08FEF6F
:100AF00090E09093FC018093FB0108958091F901AF
:100B00009091FA0101968F3F910514F08FEF90E0DC
:100B10009093FA018093F9010895CF93DF9359DB05
:100B20008EE991E07ADD81E042DDCFEF8FEF91E059
:100B300030DCC150D9F78FEF91E02BDC8091FF01C1
:100B4000909100022091010230910202821B930BCE
:100B50009093FE018093FD018FE890E09093FA015D
:100B60008093F9019093FC018093FB01CFE8D0E0E2
:100B70008FEF91E00EDC8091FF01909100022091B7
:100B8000010230910202821B930B2091FD013091F2
:100B9000FE01821B930B8530910524F081E0F5DC8A
:100BA0009EDF11C08C3F9F4F24F482E0EEDCA6DF75
:100BB0000AC080E0EADCD093FA01C093F901D09337
:100BC000FC01C093FB016091F9018091FB010BDDF9
:100BD000ADDD882369F2DF91CF9108958091F9010D
:100BE0009091FA0105969093FA018093F901209172
:100BF000FB013091FC012B5F3F4FA901415C5F4F2E
:100C00004F33510510F421E030E03093FC01209384
:100C1000FB01CF96CF9730F481E090E09093FA01FA
:100C20008093F90181E0C3DC60E080E0C9CC2091D1
:100C3000F9013091FA01C90105979093FA01809367
:100C4000F9018091FB019091FC0105979093FC01C3
:100C50008093FB01265031092F33310530F42FEFFB
:100C60003FEF3093FA012093F9010197CF9730F4C9
:100C70008FEF9FEF9093FC018093FB0180E097DC66
:100C800061E081E09DCC8091FB019091FC019C0191
:100C9000255031090697CF9728F03093FC01209317
:100CA000FB0106C08FEF9FEF9093FC018093FB0147
:100CB0008091F9019091FA0105969C01215C3F4FCA
:100CC0002F33310510F481E090E09093FA01809386
:100CD000F90180E06CDC60E081E072CC8091FB0186
:100CE0009091FC0105969C01215C3F4F2F3331050B
:100CF00010F481E090E09093FC018093FB018091DF
:100D0000F9019091FA019C01255031090697CF977E
:100D100028F03093FA012093F90106C08FEF9FEF7E
:100D20009093FA018093F90180E041DC61E080E07A
:100D300047CC1092FC011092FB011092FA01109224
:100D4000F90180E034DC60E080E03ACCEF92FF9281
:100D50000F931F93CF93DF93CDB7DEB727970FB6CF
:100D6000F894DEBF0FBECDBF34DAD2DC89EA91E061
:100D700054DC0FEF10E0EE24E394FF24FA94BFDC80
:100D8000009709F454C08F7390719093DB018093A6
:100D9000DA0140E1BE016F5F7F4F0ED3CE010196B5
:100DA0003CDC8BE991E039DC8091DA019091DB0148
:100DB000803120E19207B9F1B0F4863020E192074A
:100DC00091F140F4823020E1920749F18430904162
:100DD00041F131C0883020E19207F9F08C30904128
:100DE00009F4B5C028C0813220E19207B1F040F487
:100DF000813120E19207A9F08032904181F01BC03F
:100E0000893220E1920789F08D3320E1920709F4BD
:100E10009EC08532904179F408C009DF0CC0DEDE47
:100E20000AC031DF08C05ADF06C083DF04C0109259
:100E3000DB011092DA018091FB019091FC019C0191
:100E4000215031092E33310528F4CF969093FC01BF
:100E50008093FB018091FB019091FC019C01225C3D
:100E60003F4F2E33310528F4CF979093FC018093A8
:100E7000FB018091F9019091FA019C012150310907
:100E80002E33310528F4CF969093FA018093F9011F
:100E90008091F9019091FA019C01225C3F4F2E3321
:100EA000310528F4CF979093FA018093F90140918E
:100EB000FB015091FC0157FF02C080E101C080E2BC
:100EC0002091F9013091FA0137FF02C060E101C0C1
:100ED00060E24F3F510529F024F01093FC0100938C
:100EE000FB014091FB015091FC0141305F4F24F424
:100EF000F092FC01E092FB012F3F310529F024F034
:100F00001093FA010093F9012091F9013091FA014F
:100F100021303F4F24F4F092FA01E092F9016ADBAC
:100F20006091F9017091FA0177FF03C071956195A5
:100F300071098091FB019091FC0197FF03C091958D
:100F40008195910950DB84E690E02ADC18CF80E09F
:100F500090E027960FB6F894DEBF0FBECDBFDF91AD
:100F6000CF911F910F91FF90EF9008958091F9011B
:100F70009091FA0105969093FA018093F9012091DE
:100F8000FB013091FC012B5F3F4FA901415C5F4F9A
:100F90004F33510510F421E030E03093FC012093F1
:100FA000FB01CF96CF9730F481E090E09093FA0167
:100FB0008093F90181E0FBDA60E080E001CB2091D1
:100FC000F9013091FA01C90105979093FA018093D4
:100FD000F9018091FB019091FC0105979093FC0130
:100FE0008093FB01265031092F33310530F42FEF68
:100FF0003FEF3093FA012093F9010197CF9730F436
:101000008FEF9FEF9093FC018093FB0180E0CFDA9C
:1010100061E081E0D5CA8091FB019091FC019C01C7
:10102000255031090697CF9728F03093FC01209383
:10103000FB0106C08FEF9FEF9093FC018093FB01B3
:101040008091F9019091FA0105969C01215C3F4F36
:101050002F33310510F481E090E09093FA018093F2
:10106000F90180E0A4DA60E081E0AACA8091FB0186
:101070009091FC0105969C01215C3F4F2F33310577
:1010800010F481E090E09093FC018093FB0180914B
:10109000F9019091FA019C01255031090697CF97EB
:1010A00028F03093FA012093F90106C08FEF9FEFEB
:1010B0009093FA018093F90180E079DA61E080E0B1
:1010C0007FCA1092FC011092FB011092FA0110925B
:1010D000F90180E06CDA60E080E072CAEF92FF9282
:1010E0000F931F93CF93DF931F92CDB7DEB771D8C5
:1010F00084EB91E092DA45DB78940FEF10E0EE2478
:10110000E394FF24FA9419824EEF5FEF61E0CE0181
:1011100001966ADB8981843379F038F48B3109F4E4
:10112000B9C0823371F44BDF0CC0863339F040F024
:10113000883339F41BDF05C06EDF03C097DF01C0C1
:10114000C0DF8091FB019091FC019C01215031098D
:101150002E33310528F4CF969093FC018093FB0148
:101160008091FB019091FC019C01225C3F4F2E334A
:10117000310528F4CF979093FC018093FB01809177
:10118000F9019091FA019C01215031092E3331056A
:1011900028F4CF969093FA018093F9018091F90198
:1011A0009091FA019C01225C3F4F2E33310528F4C7
:1011B000CF979093FA018093F9018091E801909183
:1011C000E901892BD1F01092FC011092FB011092E1
:1011D000FA011092F9011092E9011092E80160E120
:1011E00080E108DA68EC88ECFED981E0E0D961E0C2
:1011F00081E0E6D988EE93E0D3DA4091FB0150918B
:10120000FC0157FF02C080E101C080E22091F9019A
:101210003091FA0137FF02C060E101C060E24F3F48
:10122000510529F024F01093FC010093FB0140913B
:10123000FB015091FC0141305F4F24F4F092FC011E
:10124000E092FB012F3F310529F024F01093FA01C1
:101250000093F9012091F9013091FA0121303F4FBB
:1012600024F4F092FA01E092F901C4D96091F901F5
:101270007091FA0177FF03C07195619571098091B2
:10128000FB019091FC0197FF03C091958195910915
:10129000AAD939CF0F90DF91CF911F910F91FF9075
:1012A000EF900895CF93DF9394D759D98DEB91E0C8
:1012B000B4D9C4E0D0E048EC50E060E070E088ECE5
:1012C00090E0ABD848EC50E06AE570E080E090E058
:1012D000A4D8219781F7DF91CF910895AA1BBB1B5A
:1012E00051E107C0AA1FBB1FA617B70710F0A61B26
:1012F000B70B881F991F5A95A9F780959095BC0147
:10130000CD010895A1E21A2EAA1BBB1BFD010DC041
:10131000AA1FBB1FEE1FFF1FA217B307E407F507A5
:1013200020F0A21BB30BE40BF50B661F771F881F81
:10133000991F1A9469F760957095809590959B0117
:10134000AC01BD01CF010895052E97FB16F4009462
:101350000FD057FD05D0D6DF07FC02D046F408C0F9
:1013600050954095309521953F4F4F4F5F4F0895D1
:1013700090958095709561957F4F8F4F9F4F089501
:10138000A29FB001B39FC001A39F01D0B29F700D77
:10139000811D1124911D0895F3DFB7FF0895821B6D
:1013A000930B0895EDDFA59F900DB49F900DA49F22
:1013B000800D911D11240895BB274A3031F49923E3
:1013C00022F4BDE2909581959F4F01C0BB27FB01A0
:1013D0005527AA27880F991FAA1FA41710F0A41B2E
:1013E00083955051B9F7A05DAA3308F0A95DA19388
:1013F000009779F7B111B1931192CB0100C0DC01D4
:10140000FC01672F71917723E1F7329704C07C913B
:101410006D9370836291AE17BF07C8F30895F89477
:02142000FFCFFC
:10142200010001000A0D2D2D20415355524F205429
:10143200657374696E67202D2D0A0D004C4544209A
:10144200546573740A0D004C696E6520546573749B
:101452000A0D0053776974636820546573740A0D2A
:10146200004F646F6D657472696520546573740A08
:101472000D004D6F746F7220546573740A0D005322
:10148200657269616C20546573740A0D006263644D
:10149200E5606154657374696E6720726967687488
:1014A200206D6F746F7220666F7277617264005480
:1014B200657374696E67207269676874206D6F74F2
:1014C2006F72206261636B77617264730046696E4A
:1014D20069736865642074657374696E67207269E4
:1014E200676874206D6F746F720054657374696EEF
:1014F20067206C656674206D6F746F7220666F7200
:10150200776172640054657374696E67206C6566F6
:1015120074206D6F746F72206261636B77617264A5
:10152200730046696E6973686564207465737469D3
:101532006E67206C656674206D6F746F7200466909
:101542006E6973686564206D6F746F722074657361
:1015520074730044656D6F4D6F64650D0A004C69CC
:101562006E6544656D6F0D0A0052433520546573F4
:10157200740D0A00504344656D6F0D0A0052656395
:0C158200687465636B44656D6F0D0A00B2
:00000001FF
